{
  "contractName": "Flip",
  "abi": [
    {
      "inputs": [],
      "payable": false,
      "stateMutability": "nonpayable",
      "type": "constructor"
    },
    {
      "anonymous": false,
      "inputs": [
        {
          "indexed": false,
          "internalType": "uint256",
          "name": "randomNumber",
          "type": "uint256"
        }
      ],
      "name": "LogGeneratedRandomNumber",
      "type": "event"
    },
    {
      "anonymous": false,
      "inputs": [
        {
          "indexed": false,
          "internalType": "string",
          "name": "description",
          "type": "string"
        }
      ],
      "name": "LogNewProvableQuery",
      "type": "event"
    },
    {
      "anonymous": false,
      "inputs": [
        {
          "indexed": false,
          "internalType": "address",
          "name": "to",
          "type": "address"
        },
        {
          "indexed": false,
          "internalType": "uint256",
          "name": "amount",
          "type": "uint256"
        }
      ],
      "name": "Sent",
      "type": "event"
    },
    {
      "anonymous": false,
      "inputs": [
        {
          "indexed": false,
          "internalType": "string",
          "name": "blurb",
          "type": "string"
        }
      ],
      "name": "res",
      "type": "event"
    },
    {
      "constant": true,
      "inputs": [],
      "name": "contractBalance",
      "outputs": [
        {
          "internalType": "uint256",
          "name": "",
          "type": "uint256"
        }
      ],
      "payable": false,
      "stateMutability": "view",
      "type": "function"
    },
    {
      "constant": true,
      "inputs": [],
      "name": "latestNumber",
      "outputs": [
        {
          "internalType": "uint256",
          "name": "",
          "type": "uint256"
        }
      ],
      "payable": false,
      "stateMutability": "view",
      "type": "function"
    },
    {
      "constant": false,
      "inputs": [],
      "name": "init",
      "outputs": [],
      "payable": true,
      "stateMutability": "payable",
      "type": "function"
    },
    {
      "constant": false,
      "inputs": [
        {
          "internalType": "bytes32",
          "name": "_myid",
          "type": "bytes32"
        },
        {
          "internalType": "string",
          "name": "_result",
          "type": "string"
        }
      ],
      "name": "__callback",
      "outputs": [],
      "payable": false,
      "stateMutability": "nonpayable",
      "type": "function"
    },
    {
      "constant": false,
      "inputs": [
        {
          "internalType": "bytes32",
          "name": "_queryId",
          "type": "bytes32"
        },
        {
          "internalType": "string",
          "name": "_result",
          "type": "string"
        },
        {
          "internalType": "bytes",
          "name": "_proof",
          "type": "bytes"
        }
      ],
      "name": "__callback",
      "outputs": [],
      "payable": false,
      "stateMutability": "nonpayable",
      "type": "function"
    },
    {
      "constant": false,
      "inputs": [
        {
          "internalType": "uint256",
          "name": "call",
          "type": "uint256"
        }
      ],
      "name": "flip",
      "outputs": [],
      "payable": true,
      "stateMutability": "payable",
      "type": "function"
    }
  ],
  "bytecode": "0x608060405234801561001057600080fd5b5060006005819055506129a6806100286000396000f3fe6080604052600436106100555760003560e01c8063221e885d1461005a57806327dc297e1461008857806338bbfa501461015a5780638b7afe2e146102c3578063dc34b0aa146102ee578063e1c7392a14610319575b600080fd5b6100866004803603602081101561007057600080fd5b8101908080359060200190929190505050610323565b005b34801561009457600080fd5b50610158600480360360408110156100ab57600080fd5b8101908080359060200190929190803590602001906401000000008111156100d257600080fd5b8201836020820111156100e457600080fd5b8035906020019184600183028401116401000000008311171561010657600080fd5b91908080601f016020809104026020016040519081016040528093929190818152602001838380828437600081840152601f19601f8201169050808301925050505050505091929192905050506105b7565b005b34801561016657600080fd5b506102c16004803603606081101561017d57600080fd5b8101908080359060200190929190803590602001906401000000008111156101a457600080fd5b8201836020820111156101b657600080fd5b803590602001918460018302840111640100000000831117156101d857600080fd5b91908080601f016020809104026020016040519081016040528093929190818152602001838380828437600081840152601f19601f8201169050808301925050505050505091929192908035906020019064010000000081111561023b57600080fd5b82018360208201111561024d57600080fd5b8035906020019184600183028401116401000000008311171561026f57600080fd5b91908080601f016020809104026020016040519081016040528093929190818152602001838380828437600081840152601f19601f8201169050808301925050505050505091929192905050506105fa565b005b3480156102cf57600080fd5b506102d861083b565b6040518082815260200191505060405180910390f35b3480156102fa57600080fd5b50610303610841565b6040518082815260200191505060405180910390f35b610321610847565b005b67016345785d8a00003410156103a1576040517f08c379a000000000000000000000000000000000000000000000000000000000815260040180806020018281038252601d8152602001807f746865206d696e696d756d20626574206973203130302066696e6e657900000081525060200191505060405180910390fd5b67016345785d8a00006005541015610421576040517f08c379a000000000000000000000000000000000000000000000000000000000815260040180806020018281038252601c8152602001807f6e6f7420656e6f7567682066756e647320696e20636f6e74726163740000000081525060200191505060405180910390fd5b6000349050806005600082825401925050819055506000809050600062030d4090508060056000828254039250508190555061045b612814565b600061046984600185610859565b905033826000019073ffffffffffffffffffffffffffffffffffffffff16908173ffffffffffffffffffffffffffffffffffffffff168152505084826060018181525050600082604001901515908115158152505085826080018181525050816007600083815260200190815260200160002060008201518160000160006101000a81548173ffffffffffffffffffffffffffffffffffffffff021916908373ffffffffffffffffffffffffffffffffffffffff1602179055506020820151816001015560408201518160020160006101000a81548160ff02191690831515021790555060608201518160030155608082015181600401559050507fc4dc360d0a9c0677a3379ae0a3d81e887f761e65fdf3d7e00859d1bcd3c473896040518080602001828103825260308152602001806129426030913960400191505060405180910390a1505050505050565b6105f6828260006040519080825280601f01601f1916602001820160405280156105f05781602001600182028038833980820191505090505b506105fa565b5050565b610602610df4565b73ffffffffffffffffffffffffffffffffffffffff163373ffffffffffffffffffffffffffffffffffffffff161461063957600080fd5b60006002836040516020018082805190602001908083835b602083106106745780518252602082019150602081019050602083039250610651565b6001836020036101000a0380198251168184511680821785525050505050509050019150506040516020818303038152906040528051906020012060001c816106b957fe5b06905080600681905550600654600760008681526020019081526020016000206001018190555060016007600086815260200190815260200160002060020160006101000a81548160ff0219169083151502179055506107316007600086815260200190815260200160002060040154600654611111565b156107fe576000600760008681526020019081526020016000206003015460076000878152602001908152602001600020600301540190508060056000828254039250508190555060006007600087815260200190815260200160002060000160009054906101000a900473ffffffffffffffffffffffffffffffffffffffff1690508073ffffffffffffffffffffffffffffffffffffffff166108fc839081150290604051600060405180830381858888f193505050501580156107fa573d6000803e3d6000fd5b5050505b7f73868e7c06789691662f996fc7cb781e79ed4c38915a9c9a85ea51206523392d816040518082815260200191505060405180910390a150505050565b60055481565b60065481565b34600560008282540192505081905550565b6000808311801561086b575060208311155b61087457600080fd5b600a84029350606060016040519080825280601f01601f1916602001820160405280156108b05781602001600182028038833980820191505090505b5090508360f81b816000815181106108c457fe5b60200101907effffffffffffffffffffffffffffffffffffffffffffffffffffffffffffff1916908160001a905350606060206040519080825280601f01601f1916602001820160405280156109295781602001600182028038833980820191505090505b509050606060206040519080825280601f01601f1916602001820160405280156109625781602001600182028038833980820191505090505b509050600061096f611217565b905060208352424118600143034018602084015260208252806020830152606060206040519080825280601f01601f1916602001820160405280156109c35781602001600182028038833980820191505090505b509050886020820152606060086040519080825280601f01601f191660200182016040528015610a025781602001600182028038833980820191505090505b509050610a158260186008846000611534565b50610a1e61285b565b60405180608001604052808781526020018881526020018681526020018481525090506000610a836040518060400160405280600681526020017f72616e646f6d0000000000000000000000000000000000000000000000000000815250838c611593565b9050606060086040519080825280601f01601f191660200182016040528015610abb5781602001600182028038833980820191505090505b50905060208401517f0100000000000000000000000000000000000000000000000000000000000000810460278301537e01000000000000000000000000000000000000000000000000000000000000810460268301537d010000000000000000000000000000000000000000000000000000000000810460258301537c0100000000000000000000000000000000000000000000000000000000810460248301537b01000000000000000000000000000000000000000000000000000000810460238301537a010000000000000000000000000000000000000000000000000000810460228301537901000000000000000000000000000000000000000000000000008104602183015378010000000000000000000000000000000000000000000000008104602083015350610de1828285600160048110610bfa57fe5b6020020151600287600060048110610c0e57fe5b60200201516040518082805190602001908083835b60208310610c465780518252602082019150602081019050602083039250610c23565b6001836020036101000a038019825116818451168082178552505050505050905001915050602060405180830381855afa158015610c88573d6000803e3d6000fd5b5050506040513d6020811015610c9d57600080fd5b810190808051906020019092919050505087600260048110610cbb57fe5b60200201516040516020018085805190602001908083835b60208310610cf65780518252602082019150602081019050602083039250610cd3565b6001836020036101000a03801982511681845116808217855250505050505090500184805190602001908083835b60208310610d475780518252602082019150602081019050602083039250610d24565b6001836020036101000a03801982511681845116808217855250505050505090500183815260200182805190602001908083835b60208310610d9e5780518252602082019150602081019050602083039250610d7b565b6001836020036101000a03801982511681845116808217855250505050505090500194505050505060405160208183030381529060405280519060200120611900565b8199505050505050505050509392505050565b60008073ffffffffffffffffffffffffffffffffffffffff16600160009054906101000a900473ffffffffffffffffffffffffffffffffffffffff1673ffffffffffffffffffffffffffffffffffffffff161480610e7c57506000610e7a600160009054906101000a900473ffffffffffffffffffffffffffffffffffffffff1661191c565b145b15610e8d57610e8b6000611927565b505b600160009054906101000a900473ffffffffffffffffffffffffffffffffffffffff1673ffffffffffffffffffffffffffffffffffffffff166338cc48316040518163ffffffff1660e01b8152600401602060405180830381600087803b158015610ef757600080fd5b505af1158015610f0b573d6000803e3d6000fd5b505050506040513d6020811015610f2157600080fd5b810190808051906020019092919050505073ffffffffffffffffffffffffffffffffffffffff166000809054906101000a900473ffffffffffffffffffffffffffffffffffffffff1673ffffffffffffffffffffffffffffffffffffffff161461106a57600160009054906101000a900473ffffffffffffffffffffffffffffffffffffffff1673ffffffffffffffffffffffffffffffffffffffff166338cc48316040518163ffffffff1660e01b8152600401602060405180830381600087803b158015610fef57600080fd5b505af1158015611003573d6000803e3d6000fd5b505050506040513d602081101561101957600080fd5b81019080805190602001909291905050506000806101000a81548173ffffffffffffffffffffffffffffffffffffffff021916908373ffffffffffffffffffffffffffffffffffffffff1602179055505b6000809054906101000a900473ffffffffffffffffffffffffffffffffffffffff1673ffffffffffffffffffffffffffffffffffffffff1663c281d19e6040518163ffffffff1660e01b815260040160206040518083038186803b1580156110d157600080fd5b505afa1580156110e5573d6000803e3d6000fd5b505050506040513d60208110156110fb57600080fd5b8101908080519060200190929190505050905090565b600060018314806111225750600083145b61112b57600080fd5b828214156111a4577f4fced676148c8835fc6fdd520b18f13ed055c6ae5a74fec9621cda4333234f046040518080602001828103825260078152602001807f796f752077696e0000000000000000000000000000000000000000000000000081525060200191505060405180910390a160019050611211565b7f4fced676148c8835fc6fdd520b18f13ed055c6ae5a74fec9621cda4333234f046040518080602001828103825260088152602001807f796f75206c6f737400000000000000000000000000000000000000000000000081525060200191505060405180910390a1600090505b92915050565b60008073ffffffffffffffffffffffffffffffffffffffff16600160009054906101000a900473ffffffffffffffffffffffffffffffffffffffff1673ffffffffffffffffffffffffffffffffffffffff16148061129f5750600061129d600160009054906101000a900473ffffffffffffffffffffffffffffffffffffffff1661191c565b145b156112b0576112ae6000611927565b505b600160009054906101000a900473ffffffffffffffffffffffffffffffffffffffff1673ffffffffffffffffffffffffffffffffffffffff166338cc48316040518163ffffffff1660e01b8152600401602060405180830381600087803b15801561131a57600080fd5b505af115801561132e573d6000803e3d6000fd5b505050506040513d602081101561134457600080fd5b810190808051906020019092919050505073ffffffffffffffffffffffffffffffffffffffff166000809054906101000a900473ffffffffffffffffffffffffffffffffffffffff1673ffffffffffffffffffffffffffffffffffffffff161461148d57600160009054906101000a900473ffffffffffffffffffffffffffffffffffffffff1673ffffffffffffffffffffffffffffffffffffffff166338cc48316040518163ffffffff1660e01b8152600401602060405180830381600087803b15801561141257600080fd5b505af1158015611426573d6000803e3d6000fd5b505050506040513d602081101561143c57600080fd5b81019080805190602001909291905050506000806101000a81548173ffffffffffffffffffffffffffffffffffffffff021916908373ffffffffffffffffffffffffffffffffffffffff1602179055505b6000809054906101000a900473ffffffffffffffffffffffffffffffffffffffff1673ffffffffffffffffffffffffffffffffffffffff1663abaa5f3e6040518163ffffffff1660e01b815260040160206040518083038186803b1580156114f457600080fd5b505afa158015611508573d6000803e3d6000fd5b505050506040513d602081101561151e57600080fd5b8101908080519060200190929190505050905090565b606060008285019050808451101561154b57600080fd5b600086602001905060008460200190505b868860200101821015611584578189015180828801525060208201915060208101905061155c565b85935050505095945050505050565b60008073ffffffffffffffffffffffffffffffffffffffff16600160009054906101000a900473ffffffffffffffffffffffffffffffffffffffff1673ffffffffffffffffffffffffffffffffffffffff16148061161b57506000611619600160009054906101000a900473ffffffffffffffffffffffffffffffffffffffff1661191c565b145b1561162c5761162a6000611927565b505b600160009054906101000a900473ffffffffffffffffffffffffffffffffffffffff1673ffffffffffffffffffffffffffffffffffffffff166338cc48316040518163ffffffff1660e01b8152600401602060405180830381600087803b15801561169657600080fd5b505af11580156116aa573d6000803e3d6000fd5b505050506040513d60208110156116c057600080fd5b810190808051906020019092919050505073ffffffffffffffffffffffffffffffffffffffff166000809054906101000a900473ffffffffffffffffffffffffffffffffffffffff1673ffffffffffffffffffffffffffffffffffffffff161461180957600160009054906101000a900473ffffffffffffffffffffffffffffffffffffffff1673ffffffffffffffffffffffffffffffffffffffff166338cc48316040518163ffffffff1660e01b8152600401602060405180830381600087803b15801561178e57600080fd5b505af11580156117a2573d6000803e3d6000fd5b505050506040513d60208110156117b857600080fd5b81019080805190602001909291905050506000806101000a81548173ffffffffffffffffffffffffffffffffffffffff021916908373ffffffffffffffffffffffffffffffffffffffff1602179055505b6060600460405190808252806020026020018201604052801561184057816020015b606081526020019060019003908161182b5790505b5090508360006004811061185057fe5b60200201518160008151811061186257fe5b60200260200101819052508360016004811061187a57fe5b60200201518160018151811061188c57fe5b6020026020010181905250836002600481106118a457fe5b6020020151816002815181106118b657fe5b6020026020010181905250836003600481106118ce57fe5b6020020151816003815181106118e057fe5b60200260200101819052506118f6858285611938565b9150509392505050565b8060036000848152602001908152602001600020819055505050565b6000813b9050919050565b6000611931611e9a565b9050919050565b60008073ffffffffffffffffffffffffffffffffffffffff16600160009054906101000a900473ffffffffffffffffffffffffffffffffffffffff1673ffffffffffffffffffffffffffffffffffffffff1614806119c0575060006119be600160009054906101000a900473ffffffffffffffffffffffffffffffffffffffff1661191c565b145b156119d1576119cf6000611927565b505b600160009054906101000a900473ffffffffffffffffffffffffffffffffffffffff1673ffffffffffffffffffffffffffffffffffffffff166338cc48316040518163ffffffff1660e01b8152600401602060405180830381600087803b158015611a3b57600080fd5b505af1158015611a4f573d6000803e3d6000fd5b505050506040513d6020811015611a6557600080fd5b810190808051906020019092919050505073ffffffffffffffffffffffffffffffffffffffff166000809054906101000a900473ffffffffffffffffffffffffffffffffffffffff1673ffffffffffffffffffffffffffffffffffffffff1614611bae57600160009054906101000a900473ffffffffffffffffffffffffffffffffffffffff1673ffffffffffffffffffffffffffffffffffffffff166338cc48316040518163ffffffff1660e01b8152600401602060405180830381600087803b158015611b3357600080fd5b505af1158015611b47573d6000803e3d6000fd5b505050506040513d6020811015611b5d57600080fd5b81019080805190602001909291905050506000806101000a81548173ffffffffffffffffffffffffffffffffffffffff021916908373ffffffffffffffffffffffffffffffffffffffff1602179055505b60008060009054906101000a900473ffffffffffffffffffffffffffffffffffffffff1673ffffffffffffffffffffffffffffffffffffffff16632ef3accc86856040518363ffffffff1660e01b81526004018080602001838152602001828103825284818151815260200191508051906020019080838360005b83811015611c44578082015181840152602081019050611c29565b50505050905090810190601f168015611c715780820380516001836020036101000a031916815260200191505b509350505050602060405180830381600087803b158015611c9157600080fd5b505af1158015611ca5573d6000803e3d6000fd5b505050506040513d6020811015611cbb57600080fd5b81019080805190602001909291905050509050823a02670de0b6b3a764000001811115611cee576000801b915050611e93565b6060611cf9856123f1565b90506000809054906101000a900473ffffffffffffffffffffffffffffffffffffffff1673ffffffffffffffffffffffffffffffffffffffff1663c55c1cb68360008985896040518663ffffffff1660e01b8152600401808581526020018060200180602001848152602001838103835286818151815260200191508051906020019080838360005b83811015611d9d578082015181840152602081019050611d82565b50505050905090810190601f168015611dca5780820380516001836020036101000a031916815260200191505b50838103825285818151815260200191508051906020019080838360005b83811015611e03578082015181840152602081019050611de8565b50505050905090810190601f168015611e305780820380516001836020036101000a031916815260200191505b5096505050505050506020604051808303818588803b158015611e5257600080fd5b505af1158015611e66573d6000803e3d6000fd5b50505050506040513d6020811015611e7d57600080fd5b8101908080519060200190929190505050925050505b9392505050565b600080611eba731d3b2638a7cc9f2cb3d298a3da7a90b67e5506ed61191c565b1115611f5c57731d3b2638a7cc9f2cb3d298a3da7a90b67e5506ed600160006101000a81548173ffffffffffffffffffffffffffffffffffffffff021916908373ffffffffffffffffffffffffffffffffffffffff160217905550611f536040518060400160405280600b81526020017f6574685f6d61696e6e6574000000000000000000000000000000000000000000815250612471565b600190506123ee565b6000611f7b73c03a2615d5efaf5f49f60b7bb6583eaec212fdf161191c565b111561201d5773c03a2615d5efaf5f49f60b7bb6583eaec212fdf1600160006101000a81548173ffffffffffffffffffffffffffffffffffffffff021916908373ffffffffffffffffffffffffffffffffffffffff1602179055506120146040518060400160405280600c81526020017f6574685f726f707374656e330000000000000000000000000000000000000000815250612471565b600190506123ee565b600061203c73b7a07bcf2ba2f2703b24c0691b5278999c59ac7e61191c565b11156120de5773b7a07bcf2ba2f2703b24c0691b5278999c59ac7e600160006101000a81548173ffffffffffffffffffffffffffffffffffffffff021916908373ffffffffffffffffffffffffffffffffffffffff1602179055506120d56040518060400160405280600981526020017f6574685f6b6f76616e0000000000000000000000000000000000000000000000815250612471565b600190506123ee565b60006120fd73146500cfd35b22e4a392fe0adc06de1a1368ed4861191c565b111561219f5773146500cfd35b22e4a392fe0adc06de1a1368ed48600160006101000a81548173ffffffffffffffffffffffffffffffffffffffff021916908373ffffffffffffffffffffffffffffffffffffffff1602179055506121966040518060400160405280600b81526020017f6574685f72696e6b656279000000000000000000000000000000000000000000815250612471565b600190506123ee565b60006121be73a2998efd205fb9d4b4963afb70778d6354ad3a4161191c565b11156122605773a2998efd205fb9d4b4963afb70778d6354ad3a41600160006101000a81548173ffffffffffffffffffffffffffffffffffffffff021916908373ffffffffffffffffffffffffffffffffffffffff1602179055506122576040518060400160405280600a81526020017f6574685f676f65726c6900000000000000000000000000000000000000000000815250612471565b600190506123ee565b600061227f736f485c8bf6fc43ea212e93bbf8ce046c7f1cb47561191c565b11156122e357736f485c8bf6fc43ea212e93bbf8ce046c7f1cb475600160006101000a81548173ffffffffffffffffffffffffffffffffffffffff021916908373ffffffffffffffffffffffffffffffffffffffff160217905550600190506123ee565b60006123027320e12a1f859b3feae5fb2a0a32c18f5a65555bbf61191c565b1115612366577320e12a1f859b3feae5fb2a0a32c18f5a65555bbf600160006101000a81548173ffffffffffffffffffffffffffffffffffffffff021916908373ffffffffffffffffffffffffffffffffffffffff160217905550600190506123ee565b60006123857351efaf4c8b3c9afbd5ab9f4bbc82784ab6ef8faa61191c565b11156123e9577351efaf4c8b3c9afbd5ab9f4bbc82784ab6ef8faa600160006101000a81548173ffffffffffffffffffffffffffffffffffffffff021916908373ffffffffffffffffffffffffffffffffffffffff160217905550600190506123ee565b600090505b90565b60606123fb61248b565b612403612882565b61240f81610400612497565b612418816124e1565b60008090505b835181101561245a5761244d84828151811061243657fe5b6020026020010151836124ef90919063ffffffff16565b808060010191505061241e565b5061246481612514565b8060000151915050919050565b806002908051906020019061248792919061289c565b5050565b60405180590338823950565b60008190506000602082816124a857fe5b06146124c157602081816124b857fe5b06602003810190505b808360200181815250506040518084526000815281810160405250505050565b6124ec816004612522565b50565b6124fc8260028351612543565b61250f818361268390919063ffffffff16565b505050565b61251f816007612522565b50565b61253f601f60058360ff16901b178361272e90919063ffffffff16565b5050565b6017811161256f5761256a8160058460ff16901b60ff16178461272e90919063ffffffff16565b61267e565b60ff81116125b057612594601860058460ff16901b178461272e90919063ffffffff16565b6125aa8160018561276e9092919063ffffffff16565b5061267d565b61ffff81116125f2576125d6601960058460ff16901b178461272e90919063ffffffff16565b6125ec8160028561276e9092919063ffffffff16565b5061267c565b63ffffffff81116126365761261a601a60058460ff16901b178461272e90919063ffffffff16565b6126308160048561276e9092919063ffffffff16565b5061267b565b67ffffffffffffffff811161267a57612662601b60058460ff16901b178461272e90919063ffffffff16565b6126788160088561276e9092919063ffffffff16565b505b5b5b5b5b505050565b61268b612882565b826020015183600001515183510111156126bb576126ba8360026126b4866020015186516127d5565b026127f1565b5b60008060008451905085518051602081830101945086518101825260208701935050505b6020811061270257815183526020830192506020820191506020810390506126df565b60006001826020036101000a039050801983511681855116818117865250508694505050505092915050565b81602001516001836000015151011115612754576127538260028460200151026127f1565b5b815180516020818301018381536001820183525050505050565b612776612882565b8360200151846000015151830111156127a4576127a384600261279d8760200151866127d5565b026127f1565b5b60006001836101000a0390508451805184818301018684198251161781528582018352505050849150509392505050565b6000818311156127e7578290506127eb565b8190505b92915050565b6060826000015190506128048383612497565b61280e8382612683565b50505050565b6040518060a00160405280600073ffffffffffffffffffffffffffffffffffffffff1681526020016000815260200160001515815260200160008152602001600081525090565b60405180608001604052806004905b606081526020019060019003908161286a5790505090565b604051806040016040528060608152602001600081525090565b828054600181600116156101000203166002900490600052602060002090601f016020900481019282601f106128dd57805160ff191683800117855561290b565b8280016001018555821561290b579182015b8281111561290a5782518255916020019190600101906128ef565b5b509050612918919061291c565b5090565b61293e91905b8082111561293a576000816000905550600101612922565b5090565b9056fe50726f7661626c65207175657279207761732073656e742c207374616e64696e6720627920666f7220616e737765722ea265627a7a72315820e2bf01d11fe29a519181decd94cbcbae5654d9e0d8ff17af40e128f04d48c28b64736f6c634300050c0032",
  "source": "pragma solidity 0.5.12;\r\nimport \"./provableAPI.sol\";\r\ncontract Flip is usingProvable{\r\n\r\n      uint256 constant NUM_RANDOM_BYTES_REQUESTED = 1;\r\n      uint public contractBalance;\r\n      uint256 public latestNumber;\r\n\r\n      struct Game {\r\n        address player;\r\n        uint result;\r\n        bool status;\r\n        uint bet;\r\n        uint playerCalled;\r\n      }\r\n\r\n  mapping (bytes32 => Game) private gamePool;\r\n\r\n      event LogNewProvableQuery(string description);\r\n      event LogGeneratedRandomNumber(uint256 randomNumber);\r\n\r\n      event res(string blurb);\r\n      event Sent(address to, uint amount);\r\n\r\n      constructor() public{\r\n          contractBalance = 0;\r\n          //requestRandom();\r\n      }\r\n\r\n      function init() public payable{\r\n          contractBalance += msg.value;\r\n      }\r\n\r\n      function checkWin(uint bet,uint  result) private returns(bool){\r\n          require(bet == uint(1) || bet == uint(0));\r\n\r\n          if(result == bet){\r\n              emit res(\"you win\");\r\n              return true;\r\n          }else{\r\n              emit res(\"you lost\");\r\n           return false;\r\n          }\r\n      }\r\n\r\n          function __callback(bytes32  _queryId,string memory _result,bytes memory _proof) public {\r\n           require(msg.sender == provable_cbAddress());\r\n\r\n           uint256 randomNumber = uint256(keccak256(abi.encodePacked(_result))) % 2;\r\n           latestNumber = randomNumber;\r\n           gamePool[_queryId].result = latestNumber;\r\n           gamePool[_queryId].status = true;\r\n           if(checkWin(gamePool[_queryId].playerCalled, latestNumber)){\r\n             uint winnings = gamePool[_queryId].bet + gamePool[_queryId].bet;\r\n               contractBalance -= winnings;\r\n             address payable p = address(uint160(gamePool[_queryId].player));\r\n             p.transfer(winnings);\r\n           }\r\n           emit LogGeneratedRandomNumber(randomNumber);\r\n      }\r\n      function flip(uint call) public payable {\r\n\r\n          require(msg.value >= 100000000000000000,\"the minimum bet is 100 finney\");\r\n          require(contractBalance >= 100000000000000000,\"not enough funds in contract\");\r\n\r\n          uint value = msg.value;\r\n          contractBalance += value;\r\n          //requestRandom(call, msg.sender, value);\r\n         uint256 QUERY_EXECUTION_DELAY = 0;\r\n         uint256 GAS_FOR_CALLBACK = 200000;\r\n         contractBalance -= GAS_FOR_CALLBACK;\r\n         Game memory newGame;\r\n         bytes32 queryId = provable_newRandomDSQuery(QUERY_EXECUTION_DELAY,NUM_RANDOM_BYTES_REQUESTED,GAS_FOR_CALLBACK);\r\n         newGame.player = msg.sender;\r\n         newGame.bet = value;\r\n         newGame.status = false;\r\n         newGame.playerCalled = call;\r\n         gamePool[queryId] = newGame;\r\n         emit LogNewProvableQuery(\"Provable query was sent, standing by for answer.\");\r\n      }\r\n\r\n}\r\n",
  "sourcePath": "C:/Users/jssel/documents/eth-course-advanced/FlipProject/contracts/Flip.sol",
  "compiler": {
    "name": "solc",
    "version": "0.5.12+commit.7709ece9.Emscripten.clang"
  },
  "schemaVersion": "3.0.16",
  "updatedAt": "2020-04-12T13:29:43.672Z",
  "devdoc": {
    "methods": {
      "__callback(bytes32,string)": {
        "details": "The following `__callback` functions are just placeholders ideally     meant to be defined in child contract when proofs are used.     The function bodies simply silence compiler warnings."
      }
    }
  },
  "userdoc": {
    "methods": {}
  }
}